:100000000C9462000C948A000C948A000C948A0070
:100010000C948A000C948A000C948A000C948A0038
:100020000C948A000C948A000C948A000C948A0028
:100030000C948A000C948A000C948A000C948A0018
:100040000C947F040C948A000C944D040C942704A7
:100050000C948A000C948A000C948A000C948A00F8
:100060000C948A000C948A000000000023002600F3
:10007000290000000008000201000003040700003E
:1000800000000000000000000000250028002B00F8
:1000900000000000240027002A00040404040404D3
:1000A0000404020202020202030303030303010227
:1000B00004081020408001020408102001020408F6
:1000C0001020C90411241FBECFEFD8E0DEBFCDBF82
:1000D00011E0A0E0B1E0E4ECFFE002C005900D9279
:1000E000A231B107D9F722E0A2E1B1E001C01D922F
:1000F000A03EB207E1F710E0C2E6D0E004C02197CD
:10010000FE010E94DA07C136D107C9F70E94250512
:100110000C94E0070C94000090E0FC01E255FF4FC6
:10012000249186569F4FFC018491882399F090E09A
:10013000880F991FFC01E057FF4FA591B491FC0176
:10014000EA57FF4F859194918FB7F894EC91E22B89
:10015000EC938FBF0895482F3091BA02E32FF091AE
:10016000BB028FEF9FEF2E2F231B241788F42191C2
:10017000822728E0BC016170772796958795672BC9
:1001800021F051E0852750EA9527215099F7EBCFD0
:100190000895AF92BF92CF92DF92EF92FF920F93AA
:1001A0001F93CF93DF936C017B018B01040F151F0D
:1001B000EB015E01AE18BF08C017D10759F0699175
:1001C000D601ED91FC910190F081E02DC6010995D9
:1001D000892B79F7C501DF91CF911F910F91FF9086
:1001E000EF90DF90CF90BF90AF900895FC01538DBA
:1001F000448D252F30E0842F90E0821B930B541701
:1002000010F0CF96089501970895FC01918D828D8D
:10021000981761F0A28DAE0FBF2FB11D5D968C9126
:10022000928D9F5F9F73928F90E008958FEF9FEF65
:100230000895FC01918D828D981731F0828DE80F21
:10024000F11D858D90E008958FEF9FEF0895FC01DB
:10025000918D228D892F90E0805C9F4F821B9109A8
:100260008F73992708958BE192E00E94270121E086
:10027000892B09F420E0822F089580E090E0892BFB
:1002800029F00E94330181110C9400000895FC01B3
:10029000A48DA80FB92FB11DA35ABF4F2C91848DE7
:1002A00090E001968F739927848FA689B7892C9344
:1002B000A089B1898C91837080648C93938D848D97
:1002C000981306C00288F389E02D80818F7D80839A
:1002D0000895EF92FF920F931F93CF93DF93EC015A
:1002E00081E0888F9B8D8C8D98131AC0E889F989DD
:1002F000808185FF15C09FB7F894EE89FF896083E0
:10030000E889F98980818370806480839FBF81E060
:1003100090E0DF91CF911F910F91FF90EF900895A2
:10032000F62E0B8D10E00F5F1F4F0F731127E02E7D
:100330008C8D8E110CC00FB607FCFACFE889F989B5
:10034000808185FFF5CFCE010E944701F1CFEB8D73
:10035000EC0FFD2FF11DE35AFF4FF0829FB7F89489
:100360000B8FEA89FB8980818062CFCFCF93DF93A7
:10037000EC01888D8823B9F0AA89BB89E889F989BD
:100380008C9185FD03C0808186FD0DC00FB607FCF2
:10039000F7CF8C9185FFF2CF808185FFEDCFCE0125
:1003A0000E944701E9CFDF91CF910895833081F01A
:1003B00028F4813099F08230A9F008958730A9F0AF
:1003C0008830C9F08430B1F4809180008F7D03C003
:1003D000809180008F7780938000089584B58F7717
:1003E00084BD089584B58F7DFBCF8091B0008F7759
:1003F0008093B00008958091B0008F7DF9CF1F9356
:10040000CF93DF93282F30E0F901EE58FF4F84910E
:10041000F901E255FF4FD491F901E656FF4FC4911F
:10042000CC23A9F0162F81110E94D601EC2FF0E009
:10043000EE0FFF1FEA57FF4FA591B4918FB7F894C5
:10044000EC91111108C0D095DE23DC938FBFDF91B2
:10045000CF911F910895DE2BF8CF892B19F48DE0F1
:100460000E94FF0181E008953FB7F8948091170141
:1004700090911801A0911901B0911A0126B5A89B7D
:1004800005C02F3F19F00196A11DB11D3FBFBA2F26
:10049000A92F982F8827BC01CD01620F711D811DE6
:1004A000911D42E0660F771F881F991F4A95D1F76B
:1004B00008958F929F92AF92BF92CF92DF92EF9268
:1004C000FF920F931F93CF93DF93C82FC090DC024E
:1004D000D090DD02E090DE02F090DF020E94340254
:1004E0004B015C01C114D104E104F104B9F00E9494
:1004F0003402681979098A099B09683E73408105AD
:10050000910580F321E0C21AD108E108F10888EED4
:10051000880E83E0981EA11CB11CE4CF0091BA02A2
:100520001091BB02F8018081882309F446C08C2F0A
:100530000E94AB00D0E0F801EC0FFD1F8083E0913A
:10054000BA02F091BB02EC0FFD1F91838091BE02B5
:100550008F3F19F061E00E94FF018091B8029091F5
:10056000B902AE014E5F5F4F6091BA027091BB025B
:10057000DC01ED91FC910280F381E02D09958091E1
:10058000B8029091B902DC01ED91FC910680F781EF
:10059000E02D09958091BE028F3F79F060E0DF91F8
:1005A000CF911F910F91FF90EF90DF90CF90BF9070
:1005B000AF909F908F900C94FF01DF91CF911F918E
:1005C0000F91FF90EF90DF90CF90BF90AF909F90F2
:1005D0008F900895E8EBF2E0A281B38111969C918F
:1005E0001197906811969C930280F381E02D82838D
:1005F00083E00C945902AF92BF92DF92EF92FF9288
:100600000F931F93CF93DF93E091BA02F091BB0257
:10061000E280F380FE24EF24FE24C481D581DC2710
:10062000CD27DC27209759F02091BC023091BD02E4
:1006300026503109369527952C173D0760F483E045
:10064000DF91CF911F910F91FF90EF90DF90BF90BE
:10065000AF900C94EA029E012E0D3F1D5B01D12C40
:1006600082179307A0F482E0EBCF000F111FE091F7
:10067000BA02F091BB02E00FF11F73832091BA021E
:100680003091BB02020F131FF8016483D3940D2D28
:1006900010E00C171D0748F4C8018E0D9F1DF501D1
:1006A000099597FFE2CF84E0CBCFE091BA02F091B9
:1006B000BB02CC0FC283E091BA02F091BB028281EF
:1006C0008D5FDF91CF911F910F91FF90EF90DF90A1
:1006D000BF90AF900C9459027F928F929F92AF92ED
:1006E000BF92CF92DF92EF92FF920F931F93CF931F
:1006F000DF93E091BA02F091BB02E280F380FE2426
:10070000EF24FE24C481D581DC27CD27DC27209768
:1007100071F02091BC023091BD022650304E43E072
:10072000220F331F4A95E1F72C173D0780F483E031
:10073000DF91CF911F910F91FF90EF90DF90CF90BD
:10074000BF90AF909F908F907F900C94EA029E0193
:100750002E0D3F1D8217930710F482E0E9CF6B0145
:10076000712C812C912C54018394072D10E00C17CF
:100770001D0758F5C8018E0D9F1DF601099587FFCD
:1007800002C084E0D5CF972D9770B501A40104C0B5
:10079000440F551F661F771F9A95D2F793E0159562
:1007A00007959A95E1F70D5F1F4FE091BA02F0911E
:1007B000BB02E00FF11F9081882321F0492B408379
:1007C0007394D3CF40954923FACFE091BA02F091C8
:1007D000BB02279683E0D695C7958A95E1F7C28339
:1007E000E091BA02F091BB0282818D5FDF91CF91DF
:1007F0001F910F91FF90EF90DF90CF90BF90AF903F
:100800009F908F907F900C945902CF93DF93892B08
:10081000D1F4EFE7F0E08491EBEBF0E0D491E7EA7C
:10082000F0E0C491CC2379F081110E94D601EC2F25
:10083000F0E0EE0FFF1FE859FF4FA591B491EC9146
:10084000ED2381E009F480E0DF91CF9108951F92BC
:100850000F920FB60F9211242F933F934F935F93F4
:100860006F937F938F939F93AF93BF93EF93FF9378
:100870008BE192E00E944701FF91EF91BF91AF9110
:100880009F918F917F916F915F914F913F912F91A8
:100890000F900FBE0F901F9018951F920F920FB6DA
:1008A0000F9211242F938F939F93EF93FF93E091D7
:1008B0002B02F0912C028081E0913102F091320202
:1008C00082FD1BC09081809134028F5F8F732091D5
:1008D0003502821741F0E0913402F0E0E55EFD4F11
:1008E000958F80933402FF91EF919F918F912F917B
:1008F0000F900FBE0F901F9018958081F4CF1F921C
:100900000F920FB60F9211242F933F938F939F93C3
:10091000AF93BF938091130190911401A0911501A1
:10092000B09116013091120123E0230F2D3758F5B5
:100930000196A11DB11D2093120180931301909384
:100940001401A0931501B0931601809117019091A5
:100950001801A0911901B0911A010196A11DB11DB4
:100960008093170190931801A0931901B0931A0175
:10097000BF91AF919F918F913F912F910F900FBE9B
:100980000F901F90189526E8230F0296A11DB11D08
:10099000D2CFEBE1F2E01382128288EE93E0A0E086
:1009A000B0E084839583A683B78384E091E091834C
:1009B000808385EC90E09587848784EC90E097872E
:1009C000868780EC90E0918B808B81EC90E0938B1C
:1009D000828B82EC90E0958B848B86EC90E0978BF9
:1009E000868B118E128E138E148EA8EBB2E01896A1
:1009F0001C921E9217971A961C921E9219971C967B
:100A00001C921E921B971E961C921E921D97119669
:100A1000FC93EE938BE191E013969C938E93129747
:100A200080E091E015969C938E9314978CE0169637
:100A30008C9316974AE050E060E070E094964D93F6
:100A40005D936D937C9397970895789484B58260B5
:100A500084BD84B5816084BD85B5826085BD85B562
:100A6000816085BD80916E00816080936E001092E0
:100A7000810080918100826080938100809181005B
:100A800081608093810080918000816080938000EC
:100A90008091B10084608093B1008091B00081604A
:100AA0008093B00080917A00846080937A00809176
:100AB0007A00826080937A0080917A0081608093CE
:100AC0007A0080917A00806880937A001092C10049
:100AD0008DE00E948C00E0912B02F0912C0282E0CC
:100AE0008083E0912702F09128021082E091290290
:100AF000F0912A0287E6808310923302E0912F0260
:100B0000F091300286E08083E0912D02F0912E0278
:100B1000808180618083E0912D02F0912E0280819E
:100B200088608083E0912D02F0912E0280818068A0
:100B30008083E0912D02F0912E0280818F7D808351
:100B40008AE08093D3020E9434026B017C018DE025
:100B500093E0A0E0B0E08093D4029093D502A093FC
:100B6000D602B093D7028EE197E0A0E0B0E0809388
:100B7000D8029093D902A093DA02B093DB0280915D
:100B8000BE028F3F39F060E00E94FF018091BE02FB
:100B90000E948C008091B8029091B902DC01ED9125
:100BA000FC910084F185E02D0995181619067CF456
:100BB0000E9434026B017C018091B8029091B902CD
:100BC000DC01ED91FC910284F385E02D09950E94F2
:100BD00034026C197D098E099F090091D802109189
:100BE000D9022091DA023091DB0260177107820787
:100BF000930780F281E090E09093C0028093BF025F
:100C000085E094E09093C8028093C7028DE292E061
:100C10009093D0028093CF02A0E0CA2EA0E0DA2EFB
:100C20008091B8029091B902DC01ED91FC910084B1
:100C3000F185E02D0995181619060CF0A2C010E0F8
:100C40008091B8029091B902DC01ED91FC91008491
:100C5000F185E02D099518161906BCF40E9434029E
:100C60004B015C018091B8029091B902DC01ED91D9
:100C7000FC910284F385E02D0995E091BA02F09190
:100C8000BB02E10FF11D80831F5F0E9434026819CF
:100C900079098A099B094090D4025090D50260904E
:100CA000D6027090D702641575058605970538F44D
:100CB0008091BC029091BD021817190608F20E949B
:100CC0003402681979098A099B094090D80250902A
:100CD000D9026090DA027090DB0264157505860512
:100CE000970568F38091B8029091B902DC01ED910B
:100CF000FC910084F185E02D0995892B09F041C014
:100D0000C091BA02D091BB0288819091D302891719
:100D100011F0811136C08EEF810F0E94AB009E0151
:100D2000210F311DF9013197408122503109F9011C
:100D30002081342F8217930721F5E981E150E031BA
:100D400008F036C1F0E0E955F94F0C94DA07B70620
:100D5000CD06D606E106EA061907D807D807D80750
:100D6000D807D807D807D807D80730078C0760916D
:100D7000C7027091C8028091BF029091C0020E9488
:100D80006C03C114D10409F44BCF0E9433018823B2
:100D900009F446CF0E94000043CF6091C9027091D0
:100DA000CA028091C1029091C202E9CF6091CB0248
:100DB0007091CC028091C3029091C4020E94FB0208
:100DC000E0CF6091CD027091CE028091C5029091EA
:100DD000C602F4CF8A819B819827892798272C8186
:100DE0003D813227232732272115310541F0211576
:100DF000FFEF3F0721F083E00E94EA02C2CF40915B
:100E0000BF025091C0028417950710F082E0F4CF22
:100E100061E0232B09F460E0E091CF02F091D00271
:100E20000995811102C084E0E7CF86E00E94590253
:100E3000A8CF8A819B819827892798276C817D81FB
:100E40007627672776272091C3023091C402821744
:100E50009307E0F6E091D102F091D2020995E1CF3B
:100E6000EA80FB80FE24EF24FE240C811D811027E4
:100E7000012710270115110509F4BDCF8091BC028F
:100E80009091BD020A97F3E0880F991FFA95E1F758
:100E90008017910708F4AFCF2E81C8010796E3E0D1
:100EA00096958795EA95E1F72817190609F0A3CFDB
:100EB0002091BF023091C002C8018E0D9F1D2817DE
:100EC000390708F4A3CFC0E08C2F90E0801791077A
:100ED00008F0ABCF9C0173E0359527957A95E1F743
:100EE000E091BA02F091BB02E20FF31F678170E05C
:100EF0002C2F277002C0759567952A95E2F76170CF
:100F0000E091CF02F091D0028E0D9F1D09958823AC
:100F100009F489CFCF5FD8CFEA80FB80FE24EF248D
:100F2000FE240C811D8110270127102701151105B2
:100F300009F461CF8091BC029091BD020A97969509
:100F400087958017910708F456CF2E81C801880F26
:100F5000991F2817190609F04ECF2091C30230912E
:100F6000C402C8018E0D9F1D2817390708F44ECF03
:100F7000C0E08C2F90E08017910708F056CFE091E9
:100F8000BA02F091BB029C01220F331FE20FF31F44
:100F900067812085762F622FE091D102F091D202F5
:100FA0008E0D9F1D0995882309F43DCFCF5FE1CFBA
:100FB00081E022CFEE0FFF1F0590F491E02D099400
:040FC000F894FFCFD3
:100FC400000000006901C900F600B601270105010F
:020FD400190101
:00000001FF
