:100000000C9462000C948A000C948A000C948A0070
:100010000C948A000C948A000C948A000C948A0038
:100020000C948A000C948A000C948A000C948A0028
:100030000C948A000C948A000C948A000C948A0018
:100040000C9467040C948A000C9435040C940F04EF
:100050000C948A000C948A000C948A000C948A00F8
:100060000C948A000C948A000000000023002600F3
:10007000290000000008000201000003040700003E
:1000800000000000000000000000250028002B00F8
:1000900000000000240027002A00040404040404D3
:1000A0000404020202020202030303030303010227
:1000B00004081020408001020408102001020408F6
:1000C0001020B10411241FBECFEFD8E0DEBFCDBF9A
:1000D00011E0A0E0B1E0EAE1FFE002C005900D927E
:1000E000A231B107D9F722E0A2E1B1E001C01D922F
:1000F000AE3DB207E1F710E0C2E6D0E004C02197C0
:10010000FE010E948507C136D107C9F70E94FA0493
:100110000C948B070C94000090E0FC01E255FF4F1B
:10012000249186569F4FFC018491882399F090E09A
:10013000880F991FFC01E057FF4FA591B491FC0176
:10014000EA57FF4F859194918FB7F894EC91E22B89
:10015000EC938FBF0895482F3091B802E32FF091B0
:10016000B9028FEF9FEF2E2F231B241788F42191C4
:10017000822728E0BC016170772796958795672BC9
:1001800021F051E0852750EA9527215099F7EBCFD0
:100190000895AF92BF92CF92DF92EF92FF920F93AA
:1001A0001F93CF93DF936C017B018B01040F151F0D
:1001B000EB015E01AE18BF08C017D10759F0699175
:1001C000D601ED91FC910190F081E02DC6010995D9
:1001D000892B79F7C501DF91CF911F910F91FF9086
:1001E000EF90DF90CF90BF90AF900895FC01538DBA
:1001F000448D252F30E0842F90E0821B930B541701
:1002000010F0CF96089501970895FC01918D828D8D
:10021000981761F0A28DAE0FBF2FB11D5D968C9126
:10022000928D9F5F9F73928F90E008958FEF9FEF65
:100230000895FC01918D828D981731F0828DE80F21
:10024000F11D858D90E008958FEF9FEF0895FC01DB
:10025000918D228D892F90E0805C9F4F821B9109A8
:100260008F73992708958BE191E00E94270121E087
:10027000892B09F420E0822F089580E090E0892BFB
:1002800029F00E94330181110C9400000895FC01B3
:10029000A48DA80FB92FB11DA35ABF4F2C91848DE7
:1002A00090E001968F739927848FA689B7892C9344
:1002B000A089B1898C91837080648C93938D848D97
:1002C000981306C00288F389E02D80818F7D80839A
:1002D0000895EF92FF920F931F93CF93DF93EC015A
:1002E00081E0888F9B8D8C8D98131AC0E889F989DD
:1002F000808185FF15C09FB7F894EE89FF896083E0
:10030000E889F98980818370806480839FBF81E060
:1003100090E0DF91CF911F910F91FF90EF900895A2
:10032000F62E0B8D10E00F5F1F4F0F731127E02E7D
:100330008C8D8E110CC00FB607FCFACFE889F989B5
:10034000808185FFF5CFCE010E944701F1CFEB8D73
:10035000EC0FFD2FF11DE35AFF4FF0829FB7F89489
:100360000B8FEA89FB8980818062CFCFCF93DF93A7
:10037000EC01888D8823B9F0AA89BB89E889F989BD
:100380008C9185FD03C0808186FD0DC00FB607FCF2
:10039000F7CF8C9185FFF2CF808185FFEDCFCE0125
:1003A0000E944701E9CFDF91CF910895833081F01A
:1003B00028F4813099F08230A9F008958730A9F0AF
:1003C0008830C9F08430B1F4809180008F7D03C003
:1003D000809180008F7780938000089584B58F7717
:1003E00084BD089584B58F7DFBCF8091B0008F7759
:1003F0008093B00008958091B0008F7DF9CF1F9356
:10040000CF93DF93282F30E0F901EE58FF4F84910E
:10041000F901E255FF4FD491F901E656FF4FC4911F
:10042000CC23A9F0162F81110E94D601EC2FF0E009
:10043000EE0FFF1FEA57FF4FA591B4918FB7F894C5
:10044000EC91111108C0D095DE23DC938FBFDF91B2
:10045000CF911F910895DE2BF8CF892B19F48DE0F1
:100460000E94FF0181E008953FB7F8948091170141
:1004700090911801A0911901B0911A0126B5A89B7D
:1004800005C02F3F19F00196A11DB11D3FBFBA2F26
:10049000A92F982F8827BC01CD01620F711D811DE6
:1004A000911D42E0660F771F881F991F4A95D1F76B
:1004B00008958F929F92AF92BF92CF92DF92EF9268
:1004C000FF920F931F93CF93DF93C82FC090DA0250
:1004D000D090DB02E090DC02F090DD020E9434025A
:1004E0004B015C01C114D104E104F104B9F00E9494
:1004F0003402681979098A099B09683E73408105AD
:10050000910580F321E0C21AD108E108F10888EED4
:10051000880E83E0981EA11CB11CE4CF0091B802A4
:100520001091B902F80180818823C1F18C2F0E94BB
:10053000AB00D0E0F801EC0FFD1F8083E091B80222
:10054000F091B902EC0FFD1F91838091BC028F3FA7
:1005500019F061E00E94FF01AE014E5F5F4F6091B4
:10056000B8027091B9028BE191E00E94C9008BE161
:1005700091E00E94B6018091BC028F3F79F060E06B
:10058000DF91CF911F910F91FF90EF90DF90CF906F
:10059000BF90AF909F908F900C94FF01DF91CF910F
:1005A0001F910F91FF90EF90DF90CF90BF90AF9091
:1005B0009F908F900895E8EBF2E0A081B1811196B1
:1005C0009C911197906811969C930190F081E02D79
:1005D000828383E00C945902AF92BF92DF92EF9234
:1005E000FF920F931F93CF93DF93E091B802F091A6
:1005F000B902E280F380FE24EF24FE24C481D58179
:10060000DC27CD27DC27209759F02091BA023091C2
:10061000BB0226503109369527952C173D0760F40B
:1006200083E0DF91CF911F910F91FF90EF90DF90CA
:10063000BF90AF900C94DB029E012E0D3F1D5B011D
:10064000D12C82179307A0F482E0EBCF000F111F8B
:10065000E091B802F091B902E00FF11F738320918D
:10066000B8023091B902020F131FF8016483D394CA
:100670000D2D10E00C171D0748F4C8018E0D9F1DAD
:10068000F501099597FFE2CF84E0CBCF8C2F880F3F
:10069000E091B802F091B90282838D5FDF91CF9132
:1006A0001F910F91FF90EF90DF90BF90AF900C944F
:1006B00059027F928F929F92AF92BF92CF92DF9218
:1006C000EF92FF920F931F93CF93DF93E091B802C5
:1006D000F091B902E280F380FE24EF24FE24C4816D
:1006E000D581DC27CD27DC27209771F02091BA0235
:1006F0003091BB022650304E53E0220F331F5A95E3
:10070000E1F72C173D0780F483E0DF91CF911F9133
:100710000F91FF90EF90DF90CF90BF90AF909F90A0
:100720008F907F900C94DB029E012E0D3F1D6B017C
:10073000712C812C912C540183948217930700F51E
:1007400082E0E3CF972D9770B501A40104C0440F58
:10075000551F661F771F9A95D2F733E015950795B9
:100760003A95E1F70D5F1F4FE091B802F091B902A1
:10077000E00FF11F9081882389F0492B4083739407
:10078000072D10E00C171D0760F4C8018E0D9F1D8A
:10079000F601099587FFD6CF84E0B7CF409549236E
:1007A000EDCFCE01079623E0969587952A95E1F740
:1007B000E091B802F091B90282838D5FDF91CF9111
:1007C0001F910F91FF90EF90DF90CF90BF90AF906F
:1007D0009F908F907F900C945902CF93DF93892B39
:1007E000D1F4EFE7F0E08491EBEBF0E0D491E7EAAD
:1007F000F0E0C491CC2379F081110E94D601EC2F56
:10080000F0E0EE0FFF1FE859FF4FA591B491EC9176
:10081000ED2381E009F480E0DF91CF9108951F92EC
:100820000F920FB60F9211242F933F934F935F9324
:100830006F937F938F939F93AF93BF93EF93FF93A8
:100840008BE191E00E944701FF91EF91BF91AF9141
:100850009F918F917F916F915F914F913F912F91D8
:100860000F900FBE0F901F9018951F920F920FB60A
:100870000F9211242F938F939F93EF93FF93E09107
:100880002B01F0912C018081E0913101F091320136
:1008900082FD1BC09081809134018F5F8F73209106
:1008A0003501821741F0E0913401F0E0E55EFE4F42
:1008B000958F80933401FF91EF919F918F912F91AC
:1008C0000F900FBE0F901F9018958081F4CF1F924C
:1008D0000F920FB60F9211242F933F938F939F93F4
:1008E000AF93BF938091130190911401A0911501D2
:1008F000B09116013091120123E0230F2D3758F5E6
:100900000196A11DB11D20931201809313019093B4
:100910001401A0931501B0931601809117019091D5
:100920001801A0911901B0911A010196A11DB11DE4
:100930008093170190931801A0931901B0931A01A5
:10094000BF91AF919F918F913F912F910F900FBECB
:100950000F901F90189526E8230F0296A11DB11D38
:10096000D2CFEBE1F1E01382128288EE93E0A0E0B7
:10097000B0E084839583A683B78384E091E091837C
:10098000808385EC90E09587848784EC90E097875E
:10099000868780EC90E0918B808B81EC90E0938B4C
:1009A000828B82EC90E0958B848B86EC90E0978B29
:1009B000868B118E128E138E148EE8EBF2E0168267
:1009C000158210861782128611861486138688EB8C
:1009D00091E09183808380E091E0938382838CE037
:1009E00084838AE090E0A0E0B0E082A393A3A4A374
:1009F000B5A30895789484B5826084BD84B5816080
:100A000084BD85B5826085BD85B5816085BD8091D9
:100A10006E00816080936E00109281008091810051
:100A20008260809381008091810081608093810049
:100A3000809180008160809380008091B10084600B
:100A40008093B1008091B00081608093B00080916C
:100A50007A00846080937A0080917A00826080932B
:100A60007A0080917A00816080937A0080917A0088
:100A7000806880937A001092C1008DE00E948C0003
:100A8000E0912B01F0912C0182E08083E09127011D
:100A9000F09128011082E0912901F0912A0183E36D
:100AA000808310923301E0912F01F091300186E0B4
:100AB0008083E0912D01F0912E01808180618083FF
:100AC000E0912D01F0912E01808188608083E0917A
:100AD0002D01F0912E01808180688083E0912D01AD
:100AE000F0912E0180818F7D808387E08093D102F9
:100AF0000E9434026B017C018EEE92E0A0E0B0E037
:100B00008093D2029093D302A093D402B093D502E3
:100B100086ED96E0A0E0B0E08093D6029093D702F5
:100B2000A093D802B093D9028091BC028F3F39F0D4
:100B300060E00E94FF018091BC020E948C008BE16A
:100B400091E00E9427011816190644F40E9434020D
:100B50006B017C018BE191E00E9405010E9434024F
:100B60006C197D098E099F090091D6021091D70258
:100B70002091D8023091D90260177107820793073C
:100B8000F0F281E090E09093BE028093BD028DEE82
:100B900093E09093C6028093C5028DE292E0909319
:100BA000CE028093CD02A0E0CA2EA0E0DA2E8BE127
:100BB00091E00E942701181619060CF08DC010E074
:100BC0008BE191E00E9427011816190684F40E9417
:100BD00034024B015C018BE191E00E940501E09140
:100BE000B802F091B902E10FF11D80831F5F0E94EE
:100BF0003402681979098A099B094090D202509001
:100C0000D3026090D4027090D502641575058605F4
:100C1000970538F48091BA029091BB021817190613
:100C200078F20E943402681979098A099B09409078
:100C3000D6025090D7026090D8027090D902641505
:100C400075058605970568F38BE191E00E94270101
:100C5000892B09F041C0C091B802D091B9028881B6
:100C60009091D102891711F0811136C08EEF810F5A
:100C70000E94AB009E01210F311DF9013197408187
:100C800022503109F9012081342F8217930721F571
:100C9000E981E150E03108F036C1F0E0EE5AF94F59
:100CA0000C9485076206780681068C069506C406B4
:100CB00083078307830783078307830783078307E4
:100CC000DB0637076091C5027091C6028091BD02B4
:100CD0009091BE020E945903C114D10409F467CF58
:100CE0000E943301882309F462CF0E9400005FCF85
:100CF0006091C7027091C8028091BF029091C002BA
:100D0000E9CF6091C9027091CA028091C1029091AD
:100D1000C2020E94EC02E0CF6091CB027091CC0243
:100D20008091C3029091C402F4CF8A819B8198275D
:100D3000892798272C813D813227232732272115A7
:100D4000310541F02115FFEF3F0721F083E00E94BC
:100D5000DB02C2CF4091BD025091BE0284179507BD
:100D600010F082E0F4CF61E0232B09F460E0E09121
:100D7000CD02F091CE020995811102C084E0E7CF47
:100D800086E00E945902A8CF8A819B8198278927F3
:100D900098276C817D817627672776272091C1026D
:100DA0003091C20282179307E0F6E091CF02F091F2
:100DB000D0020995E1CFEA80FB80FE24EF24FE24D7
:100DC0000C811D811027012710270115110509F439
:100DD000BDCF8091BA029091BB020A97F3E0880FD1
:100DE000991FFA95E1F78017910708F4AFCF2E818C
:100DF000C8010796E3E096958795EA95E1F72817ED
:100E0000190609F0A3CF2091BD023091BE02C8019E
:100E10008E0D9F1D2817390708F4A3CFC0E08C2F33
:100E200090E08017910708F0ABCF9C0173E03595F7
:100E300027957A95E1F7E091B802F091B902E20FB7
:100E4000F31F678170E02C2F277002C0759567959E
:100E50002A95E2F76170E091CD02F091CE028E0DFD
:100E60009F1D0995882309F489CFCF5FD8CFEA80E9
:100E7000FB80FE24EF24FE240C811D811027012716
:100E800010270115110509F461CF8091BA029091E4
:100E9000BB020A97969587958017910708F456CF5D
:100EA0002E81C801880F991F2817190609F04ECF07
:100EB0002091C1023091C202C8018E0D9F1D2817DA
:100EC000390708F44ECFC0E08C2F90E080179107CF
:100ED00008F056CFE091B802F091B9029C01220FC0
:100EE000331FE20FF31F67812085762F622FE09179
:100EF000CF02F091D0028E0D9F1D0995882309F431
:100F00003DCFCF5FE1CF81E022CFEE0FFF1F0590F5
:0A0F1000F491E02D0994F894FFCF4E
:100F1A00000000006901C900F600B60127010501B9
:020F2A001901AB
:00000001FF
