:100000000200413200000000000000320000000049
:10001000000000320000000000000032000000007C
:100020000000003200000000000000000000740D1D
:10003000120039740A120039223099FDC299F599DB
:1000400022787FE4F6D8FD758121C28E75985275AD
:100050008922438780758DE8D28E752000780BE861
:100060008360061200390880F602007868656C6CBF
:100070006F20776F726C6400112EC2AF80FE00009B
:00000001FF
