S014000055534152546563686F4953522E73726563F4
S11300000C9434000C943E000C943E000C943E007E
S11300100C943E000C943E000C943E000C943E0064
S11300200C943E000C943E000C943E000C943E0054
S11300300C943E000C943E000C943E000C943E0044
S11300400C943E000C943E000C944B000C943E0027
S11300500C943E000C943E000C943E000C943E0024
S11300600C943E000C943E0011241FBECFEFD8E048
S1130070DEBFCDBF0E9464000C946D000C940000A0
S11300809093C5008093C40088E98093C10086E002
S11300908093C20008951F920F920FB60F921124FD
S11300A08F93EF93FF938091C00085FFFCCFE6EC24
S11300B0F0E0808180831895FF91EF918F910F90EC
S11300C00FBE0F901F9018958FE190E00E944000A2
S11100D084B1826084B97894FFCFF894FFCF96
S9030000FC
