:0509AF001209B4D2B5ED
:0E09B400E4FFFE0FBF00010EEF64024E70F56F
:0109C2002212
:0809EE00C2B41209B4C2B52223
:0809F600D2B51209B4D2B422FB
:080941001209EEE50925E0FFB3
:02094900AD07F8
:10094B00E4FCECFF3395E0FEC3EF9408EE64809477
:10095B00805019ED30E704D2B48002C2B41209AF53
:10096B00C2B51209B4ED25E0FD0C80D6D2B5120943
:0D097B00B4A2B4E433FDC2B51209B4AF0557
:01098800224C
:0208F300AD074F
:1008F500E4FCFBEBFF3395E0FEC3EF9408EE648068
:1009050094805017D2B41209AF30B5FDEC25E0FF45
:10091500A2B4E4334FFCC2B50B80D8AF05EF3395D5
:10092500E0FEEF64014E7004C2B48002D2B4120935
:0B093500AF30B5FDC2B51209B4AF042D
:010940002294
:0509FE00C2B0D2B022DE
:100989007FFFEFF4701F20B20E20B10B30B708754E
:1009990090FFAF901209FEEFD394027480948040C7
:0509A900E17FFF80DD8D
:0109AE002226
:1009C30020B2FD20B1FA20B7F77590FFAF9002096E
:0109D300FE25
:0E09D40020B2FD30B1FA20B7F78F900209FE75
:030800001209FEDC
:100803001209898F08D3EF94027480948050F112F7
:1008130009C38F09AF08EF6004640270141209C39F
:100823008F0AEF640270051209C38F0C1209C38F7C
:100833000B1209C38F0DE508FB7A007048F50EE52E
:100843000EC3950D500E1209C3740F250EF8A6079B
:10085300050E80EB120941E50A64027005AF0C1224
:100863000949AF0B120949E4F50EE50EC3950D5086
:100873000E740F250EF8E6FF120949050E80EB12E0
:1008830009F6020803EB64024A7016120941E50AED
:1008930064027005AF0C120949AF0B120949120922
:1008A300F61209EEE50925E04401FF120949E4F5D2
:1008B3000EE50EC3950D501AE50D14B50E04E4FFB5
:1008C30080027F011208F3740F250EF8A607050EA8
:1008D30080DF1209F6E4F50EE50EC3950D40030221
:1008E3000803740F250EF8E6FF1209D4050E80E8FD
:030000000209E210
:0C09E200787FE4F6D8FD75811E02080045
:00000001FF
