:03000000020145B5
:080003008F993099FDC299228A
:03000B0002032DC0
:10000E00E5F06011ECA2E713FCED13FDEE13FEEF2D
:06001E0013FFD5F0EF22F4
:0F00240012013680021819E657F6DAF9020127A1
:10003300C2D1C2D5EE30E707D2D1D2D51200E0EC5F
:1000430030E705B2D11200E812005B30D103120091
:10005300E030D5031200E822BC000EBE0032EF8D63
:10006300F08420D226FFADF0227B0075F008EF2F3D
:10007300FFEE33FEEB33FBEE9DEB9C4005FBEE9D69
:10008300FE0FD5F0E9E4CECDCBCC227EFF7FFF225D
:10009300EDB410005022EE8DF084FEEF54F045F0E5
:1000A300C48DF084C4FCEF540FC445F0C48DF084B8
:1000B300FFADF0E4CC4FFF22EE8DF08420D2CC7E56
:1000C30008CEC5F0CDCBEF2FFFED33FD10D7079B47
:1000D3005005D5F0F1229BFD0FD5F0EA22C3E49F32
:0D00E300FFE49EFE22C3E49DFDE49CFC2290
:1000F000E58124FBF9EC6480FCE76480F78005E58A
:100100008124FBF9E5D054184404F87A04E687F01A
:10011000B5F00A0908DAF6E4FEFF020127E450040C
:07012000FE0480F5F480F1FC
:0F01270074FCD083D0822581F581C082C08322F1
:0F013600E5D054182407F8E58124FCF97A042257
:0F014500758147E4787FF6D8FD75A0FF020A1197
:10015400438920438780759850BE2507EF2480602B
:100164005180615021EEB40407EF2450603580546F
:10017400EEB40907EF24A0602F8049EEB41245EFD6
:1001840024406029803EEEB44B05EF602A8035EEB2
:10019400B47007EF24806024802AEEB4E126EF6077
:0301A40020802197
:1001A700758DD0801C758DE88017758DF48012755C
:1001B7008DFA800D758DFD8008758DFE8003758D18
:0401C700FFD28E22B3
:0801CB003098FDC298AF9922A3
:1001D300E4FCFD8EF0B2F7EC6480B5F004EDB507F6
:0B01E3000050070DED70EC0C80E922CD
:0B01EE00C2B2E4FEFF1201D3C2B32234
:1001F900C2B2E4FEFF1201D3D2B31201D3D2B222AA
:050209008F1A751B00B7
:05020E00E51A30E704D1
:04021300D2B28002E1
:10021700C2B2E4FEFF1201D3D2B31201D3C2B3E5D7
:100227001AC333F51A051BE51BB408DB1201D3D239
:10023700B31201D37B0030B2010BC2B31201D38BCF
:0202470007228C
:080249008F0375160075170004
:10025100D2B2E4FFFE1201D3D2B31201D320B30212
:1002610080FBE516C333FEA2B2E433FAEE4AF5167B
:0D027100C2B30517E517B408D7EBB40104BC
:04027E00C2B2800286
:10028200D2B2E4FEFF1201D3D2B31201D330B3FDD6
:0B029200C2B3E4FEFF1201D3AF16223E
:10029D008E128F13AA12E513C333CA33CAF5138A0C
:1002AD00121201EE7FA0120209AF12120209AF1352
:1002BD001202091201F9E4FEFF1201D31201EE7FC1
:1002CD00A11202097F01120249EFFAE4FBFFC002FD
:1002DD00C003120249D0E04FF515D0E0F51412011C
:0602ED00F9AE14AF15226A
:1002F3008E168F178C188D19AA16E517C333CA33B8
:10030300CAF5178A161201EE7FA0120209AF161260
:100313000209AF17120209AF18120209AF1912022C
:0A03230009E4FEFF1201D30201F904
:10032D00C0E0C0D0758CFC758A660543E54370024C
:07033D000542D0D0D0E032F0
:10034400C2A9438901758CFC758A66D28CD2A9D264
:07035400AFE4F542F543227E
:0D035B008E088F09120344EEB44B00400DD4
:0D036800E4F53E753F01F54075410280212E
:100375007E4BE4FFAC08AD0912005BEF2401F53FAD
:10038500E43EF53EE53FAA3EC333CA33CAF5418A8A
:010395004027
:0303960030980597
:10039900120344C298E542B54005E543B541004022
:0203A900EC2244
:0903AB0075080020980302088681
:0303B40030981A64
:1003B700120344E508B41800500C1201CBE50824D9
:1003C70023F8A6078002C2980508E542B53E05E571
:1003D70043B53F005007E508B4180040D0E542B5E3
:0903E7004005E543B54100500456
:1003F000C29880F0309803020886E4B54406E523ED
:100400006545600AE523B400028003020886E5081A
:08041000B41800400302088645
:10041800E5082422F88607E5082421F88605120A4B
:1004280000C006C007E50824FEFF1209AAD005D0BF
:10043800F0EEB5F004EF6D600122E5241460242489
:10044800FE700302056724FE70030206361470036B
:100458000206AD24F770030206FA1470030207D1EE
:0304680002087F08
:10046B00AF25AD26120A008E098F0AAF27AD2812D1
:10047B000A008E0B8F0CE50B450C600DE50BB400E1
:10048B0006E50CB40801D3400AE4FE7F03120956BB
:10049B00020886E50C250AFEE50B3509B40005EECE
:1004AB00B53B01D3400AE4FE7F02120956020886CF
:1004BB00750D00E4B50B05E50DB50C004003020509
:0104CB0057D9
:1004CC00E50A250DFFE43509FE120887E433E450F4
:1004DC000114F50E850E0F7510008F11C00EC00F94
:1004EC00C010C011E4FEFCFD7F011200F0BF01073B
:1004FC00E4FE7F04020956C00EC00FC010C011E408
:10050C00FCFDFE7F011200FFBF001EE50D0303037F
:10051C00541F2426F8E50D5407FB0B74018002C30D
:10052C0033DBFCFAE64AF6801DE50D030303541F8A
:10053C002426F8E50D5407FC0C74018002C333DC4F
:10054C00FCF4FAE65AF6050D0204BEAE0BAF0C1223
:10055C0009EDEF8F252403FF020960AF25AD2612AC
:10056C000A008E098F0AAF27AD28120A008E0B8F56
:10057C000CE50B450C600DE50BB40006E50CB53D28
:10058C0001D3400AE4FE7F03120956020886E50CEB
:10059C00250AFEE50B3509B40005EEB53D01D34047
:0B05AC000AE4FE7F02120956020886D6
:0E05B700750D00E4B50B05E50DB50C005065A3
:1005C500E50A250DFFE43509FE1208B88C0E8D0FDE
:1005D5008E108F11C00EC00FC010C011E4FFFEFCBD
:0705E500FD1200F0BFFF074B
:1005EC00E4FE7F04020956AC0EAD0FAE10AF1175D0
:1005FC00F00812000E8F8275F002E50DA4FB242684
:10060C00F8A682C00EC00FC010C011E4FEFCFD7F26
:10061C00FF120024EB2427F8A607050D8090E50CAB
:10062C00C333F5252403FF020960AF25AD26120A5A
:10063C00008E098F0AAF27AD28120A00E4F50EF5DB
:10064C000F8E108F11E50E450F451045116020C01F
:10065C000EC00FC010C011E4FFFCFD7EFF1200FFA6
:10066C00BF0002800AE4FE7F03120956020886E5E9
:10067C0009B40005E50AB53B00400AE4FE7F02120E
:10068C000956020886AE09AF0AAC10AD111208E586
:10069C00400AE4FE7F041209560208867F0602090E
:1006AC0060AF25AD26120A008E098F0AAF27AD2840
:1006BC00120A00E4F50EF50F8E108F11E509B40047
:1006CC0005E50AB53D00400AE4FE7F021209560218
:1006DC000886AE09AF0AAC10AD11120926400AE427
:1006EC00FE7F041209560208867F06020960AF25B8
:1006FC00AD26120A008E098F0AAF27AD28120A0008
:10070C008E0B8F0CE50B450C601DE50BB40006E55C
:10071C000CB47001D35010AE0BAF0C1209EDE4B554
:10072C000605E5296F600AE4FE7F031209560208EC
:10073C0086E50C250AFEE50B3509B40005EEB53B44
:0E074C0001D3400AE4FE7F021209560208861D
:0E075A00750D00E4B50B05E50DB50C005064FF
:10076800E50D54077A00F80874018005C333CA33CD
:10077800CAD8F9FEE50D030303541F242AF9E7FF3D
:10078800EE5207E433E4500114F50E850E0F751090
:10079800008F11E50E450F45104511600AE4F50E6E
:1007A800F50F7510FFF511E50A250DFFE43509FE73
:0907B800AC10AD111208E5400778
:1007C100E4FE7F04020956050D80917F060209604F
:1007D100AF25AD26120A008E098F0AAF27AD281268
:1007E1000A008E0B8F0CE50B450C6020E50BB40065
:1007F10006E50CB40701D35013AA0BE50CC333CAA9
:1008010033CAFBE4B50205E5296B6009E4FE7F0309
:100811001209568070E50C250AFEE50B3509B40076
:1008210005EEB53D01D34009E4FE7F021209568071
:010831005472
:0E083200750D00E4B50B05E50DB50C00503A50
:10084000E50A250DFFE43509FEC006C00775F00274
:10085000E50DA4FE242AF88607EE242BF88605125F
:0F0860000A008E048F05D007D006120926400724
:10086F00E4FE7F04020956050D80BB7F0602096076
:08087F00E4FE7F01120956227C
:10088700E53B24FFF8E434FFAB00F5F0EEB5F005E7
:10089700EFB50301D340037F02228F020A74018060
:1008A70002C333DAFC5546F5126003751201AF1225
:0108B700221E
:1008B8008E048F05E53D24FFF8E434FFAB00F5F026
:1008C800EEB5F005EFB50301D3400774FFFFFEFC5A
:0D08D800FD228C068D0712029DE4FCFD221E
:1008E500E53B24FFF8E434FFAB00F5F0EEB5F00589
:1008F500EFB50301D34002C322EC4D701074018F94
:10090500020A8002C333DAFCF45246800D8F020AD4
:1009150074018002C333DAFC4246E546F4F590D310
:0109250022AF
:100926008E128F138C148D15E53D24FFF8E434FFE9
:10093600AB00F5F0E512B5F006E513B50301D340BB
:1009460002C322AE12AF13AC14AD151202F3D322BA
:0A0956004324808F257F030209600F
:060960008F12E523604345
:100966001209AAEFFB8E138F14E5122423F8A603AF
:10097600E5122424F8A613D2B5751500E512240253
:10098600FBE433F5F0B2F77480B5F005E515B50371
:1009960000500EE5152423F886071200030515807E
:0409A600DBC2B522D9
:0C09AA0074FFFCFD7E00EEB5070050322B
:0B09B6002423F8E6FBED6BFD75160036
:1009C100ED540124FF92008D03ECC313CB13CBFC38
:0509D1008B0530000859
:1009D600EB6401FDEC64A0FC0516E516B408DC0E1C
:0709E60080C88C068D07227A
:1009ED00EF2407FFE43E75F003C313CF13CFD5F00B
:0309FD00F8FE22DF
:100A0000EDFB7A00C002C003EFFAD007D0E04AFE47
:010A100022C3
:100A1100753B08E4F53C753D04C2B575214BF522E3
:080A2100F54475450130B414E1
:100A2900FEFF12029D8E218F22E4FE7F0112029D9C
:100A39008E448F45AE21AF22120154AE21AF22124E
:020A4900035B4D
:050A4B001203AB80FB6B
:00000001FF
