:100000000201553200000000000000320000000034
:10001000000000320000000000000032000000007C
:10002000000000320000000000000032000000006C
:1000300000000000000000000000000000000000C0
:10004000000000320000000000000032000000004C
:10005000000000320000000000000032000000003C
:10006000000000320000000000000032000000002C
:10007000000000000000000000000032000000004E
:10008000000000000000000000000032000000003E
:10009000000000320000000000000000000000002E
:1000A0000000003200000000000000320000C39594
:1000B000F0221200AE60044002E422740122002209
:1000C000D2B511BED2B411BE7F0AD330B50C30B454
:1000D00009DFF8C2B411BEC2B5C3920422C2B41182
:1000E000BED2B511BED2B42292B411BE500C7F0A5A
:1000F00020B407DFFBD2B5D38013D2B511BE7F0A7F
:1001000020B507DFFBD2B4D38003C2B5C322D2B47B
:1001100011BED2B511BE7F0A20B505DFFBD3800723
:10012000A2B492D5C2B5C3227E083311E8400CDEDA
:10013000F9310E4006A2D5500211DD92042233FDA2
:100140007E08310E400CA2D533DEF7CD13CD11E879
:10015000D2B492042278FFE4F6D8FD758139752077
:100160000011DD51A875210051ADE521B4000280D8
:100170000302017702016551AD75F002E533A4C0B9
:10018000E07822D0E0F6E521B40202800302019378
:100190000201AC51AD853334E534B4020280030270
:1001A00001A751AD85333551AD85333651AD85331A
:1001B00037E521B4030280030201C10201F4020108
:1001C000CEE521B4020280030201CE02023F75385F
:1001D000018537F0E53811B270030201F451ADC06A
:1001E000E07838E62422F8D0E0A6330538E5386018
:1001F000030201D111C0E5223128E534B4020280A6
:1002000003020208E5353128E5363128E521B4033B
:1002100002800302021902023F7538018537F0E5BA
:100220003811B2700302023A7838E62422F8E63137
:10023000280538E538600302021C11DD020165055E
:100240002278371611C0E52231287538018537F03C
:10025000E53811B27003020270C3313EF5F0783810
:10026000E62422F8E5F0F60538E538600302024D91
:10027000D3313EF5F07838E62422F8E5F0F611DDCA
:1002800005377538018537F0E53811B27003020281
:10029000A57838E62422F8E6F53351CE0538E5385E
:1002A0006003020285020165C2B0D2B022A2B292FE
:1002B0000440030202B90202ADA2B7920440030255
:1002C00002C88590210202CB85903351A822A2B2A8
:1002D000920440030202DA0202CEA2B19204400369
:1002E0000202E685339051A82200000000000000C1
:00000001FF
