:100000000201573200000000000000320000000032
:10001000000000320000000000000032000000007C
:10002000000000320000000000000032000000006C
:1000300000000000000000000000000000000000C0
:10004000000000320000000000000032000000004C
:10005000000000320000000000000032000000003C
:10006000000000320000000000000032000000002C
:10007000000000000000000000000032000000004E
:10008000000000000000000000000032000000003E
:10009000000000320000000000000000000000002E
:1000A000000000320000000000000032000080006C
:1000B000C395F0221200B060044002E422740122D1
:1000C0000022D2B511C0D2B411C07F0AD330B50C12
:1000D00030B409DFF8C2B411C0C2B5C3920422C261
:1000E000B411C0D2B511C0D2B42292B411C0500C18
:1000F0007F0A20B407DFFBD2B5D38013D2B511C07D
:100100007F0A20B507DFFBD2B4D38003C2B5C32278
:10011000D2B411C0D2B511C07F0A20B505DFFBD320
:100120008007A2B492D5C2B5C3227E083311EA403B
:100130000CDEF931104006A2D5500211DF920422E4
:1001400033FD7E083110400CA2D533DEF7CD13CD40
:1001500011EAD2B492042278FFE4F6D8FD75813911
:1001600075200011DF31ABC2B375F001740111AE1F
:1001700060030201ABA2B2920450030201A8E59011
:10018000B40102800302018D31E10201A8E590B4BF
:100190000202800302019C51800201A8E590B40391
:1001A0000280030201A87113020169C2B0D2B02219
:1001B000A2B2920440030201BC0201B08590343126
:1001C000AB22A2B2920440030201CE0201C2A2B14C
:1001D000920440030201DED2B3853490C2B331AB46
:1001E0002275370131AB31B075F002E534A4C0E0BF
:1001F0007837E62420F8D0E0F6053731B08534357D
:1002000031B0C0E07837E62420F8D0E0A6340537D6
:10021000E535B40202800302022A31B0C0E078372B
:10022000E62420F8D0E0A634053731B085343675A1
:1002300038018536F0E53811B4700302025731B049
:10024000C0E07837E62420F8D0E0A634053705383A
:10025000E538600302023278371611C2753801851D
:1002600037F0E53811B4700302027D7838E62420B7
:10027000F8E6312A0538E538600302025F11DF2213
:1002800075370131AB31B075F002E534A4C0E078C8
:1002900037E62420F8D0E0F67837E62420F8063157
:1002A000B085343611C2E521312AE536B401028029
:1002B0000250030202DF7836167537018536F0E505
:1002C0003711B470030202DFC33140F5F07837E62E
:1002D0002420F8E5F0F60537E53760030202BCD3C9
:1002E0003140F5F07837E62420F8E5F0F611DF75B7
:1002F00038018537F0E53811B470030203127838FD
:10030000E62420F8E6F53431C20538E5386003020A
:1003100002F22275370131AB31B075F002E534A439
:10032000C0E07837E62420F8D0E0F6053731B08514
:10033000343531B0C0E07837E62420F8D0E0A63478
:100340000537E535B40202800302035C31B0C0E03A
:100350007837E62420F8D0E0A634053731B085346C
:100360003678371611C27538018537F0E53811B483
:1003700070030203877838E62420F8E6312A05382E
:10038000E538600302036978210611C2E521312AAC
:10039000E536B40102800250030203C578361675B3
:1003A00037018536F0E53711B470030203C5C33158
:1003B00040F5F07837E62420F8E5F0F60537E53724
:1003C00060030203A2D33140F5F07837E62420F829
:1003D000E5F0F611DF7538018537F0E53811B470B6
:1003E000030203F87838E62420F8E6F53431C20534
:1003F00038E53860030203D8220000000000000046
:00000001FF
