:0300000002017981
:080003008F993099FDC299228A
:03000B0002023EB0
:10000E00D2D57F018002C2D5ED7003020174540770
:10001E002323F58289F0EAFDEB7001225403458219
:10002E002390007873E608F70920D50470F7803F17
:10003E00DEF3DFF1803989828D83E608F0A320D5C7
:10004E000470F7802ADEF3DFF18024E608F309203E
:10005E00D50470F78019DEF3DFF1801388828C836C
:10006E00E0A3F70920D50470F78004DEF3DFF10278
:10007E00017180B180AF80BE80D180E080DE805182
:10008E00806B80168014803480218099809780A6A2
:10009E0080B980438041803C8068E208F70920D512
:1000AE000470F780CADEF3DFF180C4E208F30920A2
:1000BE00D50470F780B9DEF3DFF180B389828D83CA
:1000CE00E208F0A320D50470F780A4DEF3DFF18000
:1000DE009E02014C02012688828C83E493A3F709C9
:1000EE0020D50470F68088DEF2DFF080F888828CEE
:1000FE0083E0A3F30920D50470F780E9DEF3DFF186
:10010E0080E388828C83E493A3F30920D50470F6F0
:10011E0080D3DEF2DFF080CD88828C83E493A3C996
:10012E00C582C9CDC583CDF0A3C9C582C9CDC5834E
:10013E00CD20D50470E680ADDEE2DFE080A78882B8
:10014E008C83E0A3C9C582C9CDC583CDF0A3C9C533
:10015E0082C9CDC583CD20D50470E780DFDEE3DF15
:03016E00E180D954
:08017100A9F022E4FBFAF922D7
:0F017900758124E4787FF6D8FD75A0FF02020798
:10018800438920438780759850BE2507EF248060F7
:100198005180615021EEB40407EF2450603580543B
:1001A800EEB40907EF24A0602F8049EEB41245EFA2
:1001B80024406029803EEEB44B05EF602A8035EE7E
:1001C800B47007EF24806024802AEEB4E126EF6043
:0301D80020802163
:1001DB00758DD0801C758DE88017758DF480127528
:1001EB008DFA800D758DFD8008758DFE8003758DE4
:0401FB00FFD28E227F
:0801FF003098FDC298AF99226F
:10020700D2B2D2B3D2B4D2B57590FF75202575217D
:0E02170080AE20AF2112018812026B1202DBB2
:100225001202FF1202A3E4F522F523E522B4030529
:09023500E523B4E80040F480E781
:10023E00C0E0C0D0758CFC758A660523E52370027C
:07024E000522D0D0D0E03200
:100255002A2A2A2050543130302072656164696E33
:0602650067202A2A2A008E
:10026B007D057C0278557B01E4FA79087E16120035
:10027B000E1202F5E4F51EF51FE51F2408F8E660E3
:10028B0014E51F2408F88607120003051FE51F70ED
:08029B00E8051E80E40202F5F3
:1002A30075F010EF84FDACF0B40A005007ED243074
:1002B300F5088005ED2437F508ECB40A005007EC87
:1002C3002430F5098005EC2437F5091202F5AF084F
:0802D300120003AF0902000351
:1002DB00C2A9438901758CFC758A66D28CD2A9D2CE
:0702EB00AFE4F522F5232228
:0302F200C2A9227C
:0A02F5007F0D1200037F0A020003D0
:0402FF00E4FCFDFE20
:10030300C2B2C2B4D2B4D2B220B5FDC2B2C2B3300B
:10031300B5FDE590FBED2BFDE43CFCD2B3D2B20E70
:10032300BE10DD8D0375F004C313CB13CBD5F0F8EA
:030333008B072213
:00000001FF
