:100000000C9434000C9425010C9451000C94510074
:100010000C9451000C9451000C9451000C9451001C
:100020000C9451000C9451000C9451000C9451000C
:100030000C9451000C9451000C9451000C945100FC
:100040000C9451000C9451000C94F5000C94510048
:100050000C9451000C9451000C9451000C945100DC
:100060000C9451000C94510011241FBECFEFD8E026
:10007000DEBFCDBF11E0A0E0B1E0E0E2F4E002C0FD
:1000800005900D92AE32B107D9F723E0AEE2B1E0B0
:1000900001C01D92A733B207E1F70E94DC010C9466
:1000A0000E020C94000084B1887F84B98AB18770F5
:1000B0008AB90895019711F40C94530084B18760B4
:1000C00084B98AB1886F8AB9089560912F0120910F
:1000D0003101309132018FEF9FEF462F50E04217F0
:1000E0005307ACF46F5FFA01ED5CFE4F408184274B
:1000F00048E0FC01E170FF2796958795EF2B21F0F2
:1001000051E0852750EA9527415099F7E6CFF9014C
:10011000ED5CFE4F80832E5F3F4F30933201209382
:100120003101918308959091C00095FFFCCF809399
:10013000C6008091C00086FFFCCF8091C000806423
:100140008093C0000895449A80912F0190913001CE
:1001500020913101309132018217930774F49C0190
:100160002F5F3F4F3093300120932F01FC01ED5C56
:10017000FE4F80810E949300E7CF44980895CF936B
:10018000C82F82E090E00E945A0083B1887F9C2FA4
:100190009770892B85B989B18770C87FC82BCBB977
:1001A000CF910895880F991F880F991FFC01EB5F6D
:1001B000FE4F208131814281538160E078E185E109
:1001C00090E00E94EC01215031093093C50020934A
:1001D000C400E0ECF0E080818260808388E9809355
:1001E000C10086E08093C20008951F920F920FB65F
:1001F0000F9211242F933F934F938F939F93EF93DD
:10020000FF9380913502909136029C012F5F3F4F02
:1002100030933602209335024091C600FC01E95C20
:10022000FD4F40832115314021F410923602109287
:100230003502FF91EF919F918F914F913F912F91B7
:100240000F900FBE0F901F9018951F920F920FB630
:100250000F9211242F933F934F935F936F937F934C
:100260008F939F93AF93BF93EF93FF9396B129B171
:1002700083B1287F8770822B9770933039F0943048
:1002800009F45AC0923009F082C02FC080932E0129
:100290008530B9F02CF4833059F08430C9F077C040
:1002A0008630F9F0873009F072C0109200016FC0FB
:1002B00010923602109235021092340210923302DC
:1002C00066C08091000181110E9465000E94A30018
:1002D00010923201109231011092300110922F01D0
:1002E00056C081E08093000152C090912E01913060
:1002F00099F09A3009F04BC02091310130913201D0
:10030000A9014F5F5F4F5093320140933101F901D2
:10031000ED5CFE4F80833BC0482F50E060E070E012
:100320004093010150930201609303017093040113
:1003300090E00E94D2002BC080912E01883039F0CD
:10034000893059F0823019F5809101011EC08091E9
:10035000350290913302891B18C08091330290912D
:10036000340220913502309136022817390761F0A6
:100370009C012F5F3F4F3093340220933302FC01E6
:10038000E95CFD4F808101C080E00E94BF0043987E
:10039000439A0E945300FF91EF91BF91AF919F91BB
:1003A0008F917F916F915F914F913F912F910F901E
:1003B0000FBE0F901F90189580910101909102013E
:1003C0000E94D2003B9A439A81E08DBB3C9A4498AC
:1003D0000E9453007894FFCFA1E21A2EAA1BBB1BE8
:1003E000FD010DC0AA1FBB1FEE1FFF1FA217B30701
:1003F000E407F50720F0A21BB30BE40BF50B661F17
:10040000771F881F991F1A9469F7609570958095DA
:1004100090959B01AC01BD01CF010895F894FFCFE9
:100420000105000000B004000060090000C01200D7
:10043000008025000040380000004B000080700064
:0E044000000096000000E1000000C201000074
:00000001FF
