:100000000C9434000C94C6000C9451000C945100D4
:100010000C9451000C9451000C9451000C9451001C
:100020000C9451000C9451000C9451000C9451000C
:100030000C9451000C9451000C9451000C945100FC
:100040000C9451000C9451000C9496000C945100A7
:100050000C9451000C9451000C9451000C945100DC
:100060000C9451000C94510011241FBECFEFD8E026
:10007000DEBFCDBF11E0A0E0B1E0ECE4F3E002C0F0
:1000800005900D92A837B107D9F722E0A8E7B1E0B3
:1000900001C01D92AC37B207E1F70E9455010C94E4
:1000A000A4010C940000019739F484B1887F84B9CD
:1000B0008AB187708AB9089584B1876084B98AB19A
:1000C000886F8AB90895E0ECF0E0908195FFFDCF4C
:1000D000449A8093C60044980895CF93C82F82E035
:1000E00090E00E94530083B1887F9C2F9770892BEA
:1000F00085B989B18770C87FC82BCBB94398439A1B
:1001000081E090E00E945300CF9108959093C50044
:100110008093C400E0ECF0E080818260808388E915
:100120008093C10086E08093C20008951F920F92D1
:100130000FB60F9211242F933F934F938F939F935A
:10014000EF93FF9380917A0190917B019C012F5F47
:100150003F4F30937B0120937A014091C600FC0110
:10016000E458FE4F40832115314021F410927B0169
:1001700010927A01FF91EF919F918F914F913F9152
:100180002F910F900FBE0F901F9018951F920F92F6
:100190000FB60F9211242F933F934F935F936F935A
:1001A0007F938F939F93AF93BF93EF93FF9396B1FA
:1001B000E9B183B1E87F87708E2B9770933009F493
:1001C00049C020F4923009F440C05EC0943019F068
:1001D000953041F159C08091780190917901209139
:1001E0007A0130917B0128173907C9F09C012F5FF4
:1001F0003F4F3093790120937801FC01E458FE4F82
:1002000080810E946D008091780190917901811523
:100210009140D1F5109279011092780135C0439840
:10022000439A32C020917A0130917B01809178010C
:10023000909179012817390721F08FEF0E946D0006
:1002400023C080E00E946D001FC00E94630043989D
:10025000439A1AC08B30B0F4E82FF0E0EE0FFF1F86
:10026000EE0FFF1FE050FF4F20813181428153810B
:1002700060EA75E286E290E00E948201C90101977E
:100280000E9486004398439AFF91EF91BF91AF91EE
:100290009F918F917F916F915F914F913F912F919E
:1002A0000F900FBE0F901F901895CF93DF93CDB78F
:1002B000DEB7CC54D1090FB6F894DEBF0FBECDBF68
:1002C0008CE4ECE2F1E0DE01119601900D928A954A
:1002D000E1F789E090E00E9486008981882351F04F
:1002E0008E010E5F1F4F0E946300F80181918F0104
:1002F0008111F9CF3C9A44983B9A439A81E08DBB97
:100300007894FFCFA1E21A2EAA1BBB1BFD010DC0E2
:10031000AA1FBB1FEE1FFF1FA217B307E407F507B5
:1003200020F0A21BB30BE40BF50B661F771F881F91
:10033000991F1A9469F760957095809590959B0127
:0C034000AC01BD01CF010895F894FFCF7F
:10034C00B004000060090000C0120000802500000D
:10035C0040380000004B0000807000000096000048
:10036C0000E1000048E8010090D003000D0A2A2AA1
:10037C002A205454592043617264202D20666972DE
:10038C006D776172652076312E312E202A2A2A0D46
:10039C000A2A2A2A206279204B616C746368756B77
:1003AC002C207365702F323032312E202020202AE1
:0803BC002A2A0D0A0D0A0000B7
:00000001FF
