:100000000C9434000C9478000C943E000C943E0048
:100010000C943E000C943E000C943E000C943E0068
:100020000C943E000C943E000C943E000C943E0058
:100030000C943E000C943E000C943E000C943E0048
:100040000C943E000C943E000C943E000C943E0038
:100050000C943E000C943E000C943E000C943E0028
:100060000C943E000C943E0011241FBECFEFD8E04C
:10007000DEBFCDBF0E94C1000C94CE000C940000E6
:100080009091C00095FFFCCF8093C6000895CF9358
:10009000C82F82958F708A3010F0895C01C0805D16
:1000A0000E944000CF70CA3018F087E38C0F02C066
:1000B00080E38C0F0E944000CF9108959093C5007B
:1000C0008093C40088E98093C10086E08093C200D9
:1000D00084E50E94400084E50E94400089E50E947A
:1000E00040008DE00E9440008AE00E944000089598
:1000F0001F920F920FB60F9211242F933F934F939D
:100100005F936F937F938F939F93AF93BF93CF939F
:10011000EF93FF9386B1C3B199B1C770987FC92B94
:1001200087700E9447008DE20E9440008C2F0E9441
:1001300047008EE20E94400080E20E9440002AE2D6
:1001400030E58EEF90E02150304080409040D9F76C
:10015000000088B1877F88B988B1886088B9FF912D
:10016000EF91CF91BF91AF919F918F917F916F91BF
:100170005F914F913F912F910F900FBE0F901F9065
:1001800018958FE190E00E945E0088E087B988B101
:10019000886088B981E08DBB7894FFCFF894FFCF59
:00000001FF
