:100000000C9434000C943E000C943E000C943E0082
:100010000C943E000C943E000C943E000C943E0068
:100020000C943E000C943E000C943E000C943E0058
:100030000C943E000C943E000C943E000C943E0048
:100040000C943E000C943E000C943E000C943E0038
:100050000C943E000C943E000C943E000C943E0028
:100060000C943E000C943E0011241FBECFEFD8E04C
:10007000DEBFCDBF0E9440000C9464000C940000D1
:1000800084B1806284B985B18F7D85B920E030E08C
:100090000EC083B1806283B94FEF80E792E0415098
:1000A00080409040E1F700C000002F5F3F4F2431B7
:1000B00031057CF32FEF41EF8BE22150404080402F
:0C00C000E1F700C00000E2CFF894FFCF91
:00000001FF
