S00F00006D79426C696E6B2E737265633F
S11300000C9434000C943E000C943E000C943E007E
S11300100C943E000C943E000C943E000C943E0064
S11300200C943E000C943E000C943E000C943E0054
S11300300C943E000C943E000C943E000C943E0044
S11300400C943E000C943E000C943E000C943E0034
S11300500C943E000C943E000C943E000C943E0024
S11300600C943E000C943E0011241FBECFEFD8E048
S1130070DEBFCDBF0E9440000C9454000C940000DD
S113008084B1826084B985B18D7F85B92FE784E816
S11300909EE1215080409040E1F700C0000095B1FE
S10F00A082E0892785B9F2CFF894FFCFE5
S9030000FC
