:100000000C9434000C943E000C943E000C943E0082
:100010000C943E000C943E000C943E000C943E0068
:100020000C943E000C943E000C943E000C943E0058
:100030000C943E000C943E000C943E000C943E0048
:100040000C943E000C943E000C943E000C943E0038
:100050000C943E000C943E000C943E000C943E0028
:100060000C943E000C943E0011241FBECFEFD8E04C
:10007000DEBFCDBF0E9440000C9465000C940000D0
:1000800084B1826084B985B18D7F85B920E030E08C
:100090000FC095B182E0892785B94FE38DE093E0E9
:1000A000415080409040E1F700C000002F5F3F4F7B
:1000B0002431310574F32FE74EEE86E321504040A2
:0E00C0008040E1F700C00000E1CFF894FFCFD0
:00000001FF
