:100000000C943C000C94CE000C9459000C945900B4
:100010000C9459000C9459000C9459000C945900FC
:100020000C9459000C9459000C9459000C945900EC
:100030000C9459000C9459000C9459000C945900DC
:100040000C9459000C9459000C949E000C94590087
:100050000C9459000C9459000C9459000C945900BC
:100060000C9459000C9459004B0173015001550137
:100070005A015F016401690111241FBECFEFD8E06E
:10008000DEBFCDBF11E0A0E0B1E0E8EEF3E002C0DA
:1000900005900D92A634B107D9F722E0A6E4B1E0AD
:1000A00001C01D92AA34B207E1F70E9498010C9496
:1000B000F2010C940000019739F484B1887F84B96F
:1000C0008AB187708AB9089584B1876084B98AB18A
:1000D000886F8AB908959091C00095FFFCCF8093F6
:1000E000C6008091C00085FFFCCF0895CF93C82F34
:1000F00082E090E00E945B0083B1887F9C2F977024
:10010000892B85B989B18770C87FC82BCBB988B1D5
:10011000877F88B988B1886088B981E090E00E94C3
:100120005B00CF9108959093C5008093C40088E947
:100130008093C10086E08093C20008951F920F92C1
:100140000FB60F9211242F933F934F938F939F934A
:10015000EF93FF9380914801909149019C012F5F9B
:100160003F4F30934901209348014091C600FC0164
:10017000E65BFE4F40832115314021F41092490186
:1001800010924801FF91EF919F918F914F913F9174
:100190002F910F900FBE0F901F9018951F920F92E6
:1001A0000FB60F9211242F933F934F935F936F934A
:1001B0007F938F939F93AF93BF93EF93FF9396B1EA
:1001C000977089B1E3B1282F287F8E2F8770822BFB
:1001D000933009F452C020F4923009F445C097C01E
:1001E000943019F0953069F192C020914801309116
:1001F0004901809146019091470128173907D1F0B4
:100200009C012F5F3F4F3093470120934601FC0133
:10021000E65BFE4F80810E947600809146019091BE
:1002200047018115914009F072C010924701109268
:1002300046016DC088B1877F88B988B1886088B968
:1002400066C020914801309149018091460190910A
:1002500047012817390721F08FEF0E94760057C019
:1002600080E00E94760053C00E946B0088B1877FB7
:1002700088B988B1886088B94AC0082E000C990BEB
:10028000AA0BBB0BFC01F197E830F10538F5EC5CEB
:10029000FF4F0C94EC0128E532E040E050E027C02D
:1002A00020E639E040E050E022C020EC32E140E0BE
:1002B00050E01DC020E835E240E050E018C020E0EA
:1002C0003BE440E050E013C020E036E940E050E07D
:1002D0000EC028E438EE41E050E009C020E930EDDE
:1002E00043E050E004C020EB34E040E050E060ED3B
:1002F00072E183E190E00E94CA01C90101970E9466
:10030000930088B1877F88B988B1886088B9FF91E8
:10031000EF91BF91AF919F918F917F916F915F917D
:100320004F913F912F910F900FBE0F901F901895F6
:10033000CF93DF93CDB7DEB7C654D1090FB6F8948B
:10034000DEBF0FBECDBF86E4E0E0F1E0DE01119636
:1003500001900D928A95E1F784E090E00E9493006D
:1003600000E010E004C00F5F1F4F0E946B00E1E04F
:10037000F0E0EC0FFD1FE00FF11F80818111F3CF42
:1003800087B1886087B988B1886088B981E08DBB02
:100390007894FFCFA1E21A2EAA1BBB1BFD010DC052
:1003A000AA1FBB1FEE1FFF1FA217B307E407F50725
:1003B00020F0A21BB30BE40BF50B661F771F881F01
:1003C000991F1A9469F760957095809590959B0197
:1003D000AC01BD01CF010895EE0FFF1F0590F49110
:0803E000E02D0994F894FFCF11
:1003E8000D0A2A2A2A2054545920636172642C2049
:1003F8003235306B62707320384E312E202A2A2A0B
:100408000D0A2A2A2A206279204B616C7463687568
:100418006B2C207365702F323032312E202A2A2A15
:060428000D0A0D0A0000A0
:00000001FF
