:100000000C943E000C94D2000C945B000C945B00AA
:100010000C945B000C945B000C945B000C945B00F4
:100020000C945B000C945B000C945B000C945B00E4
:100030000C945B000C945B000C945B000C945B00D4
:100040000C945B000C945B000C94A2000C945B007D
:100050000C945B000C945B000C945B000C945B00B4
:100060000C945B000C945B00910169016E017301BB
:1000700078017D018201640187018C0111241FBE7A
:10008000CFEFD8E0DEBFCDBF11E0A0E0B1E0E4E209
:10009000F4E002C005900D92A634B107D9F722E032
:1000A000A6E4B1E001C01D92AA34B207E1F70E94B4
:1000B000B6010C9410020C940000019739F484B13D
:1000C000887F84B98AB187708AB9089584B18760BE
:1000D00084B98AB1886F8AB908959091C00095FF5C
:1000E000FCCF8093C6008091C00085FFFCCF0895AF
:1000F000CF93C82F82E090E00E945D0083B1887F9B
:100100009C2F9770892B85B989B18770C87FC82BC0
:10011000CBB988B1877F88B988B1886088B9489B96
:10012000FECF81E090E00E945D00CF910895909312
:10013000C5008093C40088E98093C10086E0809365
:10014000C20008951F920F920FB60F9211242F93A1
:100150003F934F938F939F93EF93FF938091480129
:10016000909149019C012F5F3F4F309349012093AB
:1001700048014091C600FC01E65BFE4F408321151B
:10018000314021F41092490110924801FF91EF9102
:100190009F918F914F913F912F910F900FBE0F9094
:1001A0001F9018951F920F920FB60F9211242F9344
:1001B0003F934F935F936F937F938F939F93AF93EF
:1001C000BF93EF93FF9326B12770E9B193B1E87F16
:1001D000892F87708E2B233009F468C020F42230D9
:1001E00009F45BC0B2C0243019F0253069F1ADC00C
:1001F0002091480130914901809146019091470139
:1002000028173907D1F09C012F5F3F4F30934701EA
:1002100020934601FC01E65BFE4F80810E9478003E
:1002200080914601909147018115914009F08DC060
:10023000109247011092460188C088B1877F88B923
:1002400088B1886088B981C082E090E00E945D003A
:1002500020914801309149018091460190914701D8
:100260002817390739F085B1876085B98BB1886F58
:100270008BB906C085B1887F85B98BB187708BB982
:1002800088B1877F88B988B1886088B9489BFECFDC
:1002900081E090E00E945D0058C00E946D0088B12E
:1002A000877F88B988B1886088B94FC0082E000C54
:1002B000990BAA0BBB0BFC01F097EA30F10520F477
:1002C000EC5CFF4F0C940A0220E036E940E050E07D
:1002D0002CC028E532E040E050E027C020EB34E0BD
:1002E00040E050E022C020E639E040E050E01DC090
:1002F00020EC32E140E050E018C020E835E240E078
:1003000050E013C020E03BE440E050E00EC028E4A1
:1003100038EE41E050E009C020E930ED43E050E024
:1003200004C02CE231E040E050E060ED72E183E196
:1003300090E00E94E801C90101970E94970088B1EE
:10034000877F88B988B1886088B9FF91EF91BF91A4
:10035000AF919F918F917F916F915F914F913F915D
:100360002F910F900FBE0F901F901895CF93DF9392
:10037000CDB7DEB7C654D1090FB6F894DEBF0FBEB5
:10038000CDBF86E4E0E0F1E0DE01119601900D9230
:100390008A95E1F784E090E00E94970000E010E089
:1003A00004C00F5F1F4F0E946D00E1E0F0E0EC0F12
:1003B000FD1FE00FF11F80818111F3CF87B18860AD
:1003C00087B988B1886088B981E08DBB7894FFCF08
:1003D000A1E21A2EAA1BBB1BFD010DC0AA1FBB1F49
:1003E000EE1FFF1FA217B307E407F50720F0A21BBB
:1003F000B30BE40BF50B661F771F881F991F1A9428
:1004000069F760957095809590959B01AC01BD0151
:10041000CF010895EE0FFF1F0590F491E02D099490
:04042000F894FFCF7E
:100424000D0A2A2A2A2054545920636172642C200C
:100434003235306B62707320384E312E202A2A2ACE
:100444000D0A2A2A2A206279204B616C746368752C
:100454006B2C207365702F323032312E202A2A2AD9
:060464000D0A0D0A000064
:00000001FF
