:100000000C9434000C949E000C9451000C945100FC
:100010000C9451000C9451000C9451000C9451001C
:100020000C9451000C9451000C9451000C9451000C
:100030000C9451000C9451000C9451000C945100FC
:100040000C9451000C9451000C946E000C945100CF
:100050000C9451000C9451000C9451000C945100DC
:100060000C9451000C94510011241FBECFEFD8E026
:10007000DEBFCDBF11E0A0E0B1E0ECE7F3E002C0ED
:1000800005900D92A232B107D9F723E0A2E2B1E0C8
:1000900001C01D92AA32B207E1F70E9462010C94DE
:1000A000BC010C940000019739F485B1887F85B9B3
:1000B0008BB187708BB9089585B1876085B98BB195
:1000C000886F8BB908959093C5008093C40088E928
:1000D0008093C10086E08093C20008951F920F9222
:1000E0000FB60F9211242F933F934F938F939F93AB
:1000F000EF93FF9380912801909129019C012F5F3C
:100100003F4F30932901209328014091C600FC0104
:10011000E65DFE4F40832115314021F41092290104
:1001200010922801FF91EF919F918F914F913F91F4
:100130002F910F900FBE0F901F9018951F920F9246
:100140000FB60F9211242F933F934F935F936F93AA
:100150007F938F939F93AF93BF93EF93FF9386B15A
:10016000877029B193B12F709770922B833009F467
:1001700092C020F4823009F471C093C0843021F021
:10018000853009F442C08DC082E090E00E945300A7
:100190008091280190912901209126013091270119
:1001A0008217930729F193B1F901E65DFE4F808133
:1001B000987F8770892B85B999B1E0912601F091DC
:1001C0002701E65DFE4F80819770887F892B8BB970
:1001D00080912601909127010196909327018093A9
:1001E00026018115914021F41092270110922601D9
:1001F00088B1877F88B988B1886088B9489BFECF6D
:1002000081E090E00E9453004CC082E090E00E94A8
:10021000530020912801309129018091260190916D
:1002200027012817390739F085B1876085B98BB167
:10023000886F8BB906C085B1887F85B98BB187700F
:100240008BB988B1877F88B988B1886088B9489BA5
:10025000FECF81E090E00E94530023C02091240152
:1002600030912501A9014F5F5F4F509325014093C5
:100270002401F901E65DFD4F90834115514021F4C1
:10028000109225011092240188B1877F88B988B126
:10029000886088B906C088B1877F88B988B18860CE
:1002A00088B9FF91EF91BF91AF919F918F917F910D
:1002B0006F915F914F913F912F910F900FBE0F90D3
:1002C0001F901895CF93DF93CDB7DEB7A1970FB6E8
:1002D000F894DEBF0FBECDBF81E2E0E0F1E0DE01C9
:1002E000119601900D928A95E1F78FE190E00E94BE
:1002F000630080E090E007C03091C00035FFFCCF84
:1003000001962093C600E1E0F0E0EC0FFD1FE80F3E
:10031000F91F20812111F0CF87B1886087B988B19A
:10032000886088B981E08DBB789480912401909198
:100330002501209122013091230182179307A9F30F
:100340008091C00085FFFCCFC901019690932301E5
:1003500080932201F901E65DFD4F80818093C60004
:10036000809122019091230181159140F1F6109224
:0C037000230110922201D9CFF894FFCF96
:10037C003E70726554545920636172640D0A3E33A9
:10038C003834303062707320384E310D0A0D0A004B
:02039C0000005F
:00000001FF
